:100000000C945D000C9485000C9485000C94850084
:100010000C9485000C9485000C9485000C9485004C
:100020000C9485000C9485000C9485000C9485003C
:100030000C9485000C9485000C9485000C9485002C
:100040000C94040D0C9485000C94EA030C94C403E6
:100050000C9485000C9485000C9485000C9485000C
:100060000C9485000C94850000000008000201003B
:100070000003040700000000000000000000000072
:10008000250028002B0000000000240027002A0083
:10009000040404040404040402020202020203032E
:1000A0000303030301020408102040800102040836
:1000B0001020010204081020B41111241FBECFEF3C
:1000C000D8E0DEBFCDBF12E0A0E0B1E0E6EEF4E2A2
:1000D00002C005900D92A836B107D9F723E0A8E633
:1000E000B2E001C01D92A836B207E1F710E0CDE5FD
:1000F000D0E004C02197FE010E946612CC35D107E2
:10010000C9F70E94F30F0C9471120C940000FC01CB
:10011000538D448D252F30E0842F90E0821B930B6C
:10012000541710F0CF96089501970895FC01918D12
:10013000828D981761F0828DDF01A80FB11D5D9649
:100140008C91928D9F5F9F73928F90E008958FEFB7
:100150009FEF0895FC01918D828D981731F0828D6B
:10016000E80FF11D858D90E008958FEF9FEF0895C2
:10017000FC01918D228D892F90E0805C9F4F821B26
:1001800091098F739927089589E892E00E94B80039
:1001900021E0892B09F420E0822F0895FC01848D51
:1001A000DF01A80FB11DA35ABF4F2C91848D90E0A1
:1001B00001968F739927848FA689B7892C93A0897C
:1001C000B1898C91837080648C93938D848D981306
:1001D00006C00288F389E02D80818F7D8083089599
:1001E000EF92FF920F931F93CF93DF93EC0181E087
:1001F000888F9B8D8C8D981305C0E889F989808143
:1002000085FD26C0F62E0B8D10E00F5F1F4F0F737C
:100210001127E02E8C8DE8120CC00FB607FCFACF28
:10022000E889F989808185FFF5CFCE010E94CE0053
:10023000F1CF8B8DFE01E80FF11DE35AFF4FF082E5
:100240009FB7F8940B8FEA89FB89808180620AC08E
:100250009FB7F894EE89FF896083E889F9898081E6
:100260008370806480839FBF81E090E0DF91CF91B5
:100270001F910F91FF90EF900895CF93DF93EC01C2
:10028000888D8823C9F0EA89FB89808185FD05C0B6
:10029000A889B9898C9186FD0FC00FB607FCF5CFF0
:1002A000808185FFF2CFA889B9898C9185FFEDCF38
:1002B000CE010E94CE00E7CFDF91CF91089580E07C
:1002C00090E0892B29F00E94C40081110C94000059
:1002D000089508958EBD00000DB407FEFDCF8EB5C4
:1002E00008958CBD9DBD0895CF93DF93EC01898D5A
:1002F0009A8D892B41F0E881F9810284F385E02D04
:10030000CE010995F4CFDF91CF910895CF93DF937C
:100310001F92CDB7DEB76983DC01ED91FC910280BD
:10032000F381E02D41E050E0BE016F5F7F4F099502
:100330000F90DF91CF910895FC01818D928D0895EA
:10034000FC0185899689089522EB31E0FC01318317
:100350002083FB014189528963897489FC014283AE
:100360005383648375830895DC01ED91FC91048CC3
:10037000F58DE02D099480E00895CF93DF931F92CF
:10038000CDB7DEB76983DC01ED91FC910280F3818A
:10039000E02D41E050E0BE016F5F7F4F09950F9067
:1003A000DF91CF910895FC019485FB01848598131A
:1003B00003C081E0983009F480E0089521E0FC0159
:1003C0008485883009F420E0822F08950895CF9322
:1003D000DF931F92CDB7DEB76983DC01ED91FC910D
:1003E0000280F381E02D41E050E0BE016F5F7F4F5E
:1003F00009950F90DF91CF910895DC01ED91FC916B
:10040000028CF38DE02D099591E0892708950895D8
:1004100080E090E008958F929F92AF92BF92CF922A
:10042000DF92EF92FF920F931F93CF93DF937C01A4
:10043000EB016C0182E0C80ED11C4701E5E08E0E95
:10044000911C00E010E0F60141916F0150E060E086
:1004500070E02AE0CE010E944E0D5C01E881F98136
:100460000190F081E02D6EE2CE0109958A0D9B1D71
:10047000080F191F8C149D0431F7F701458150E0D6
:1004800060E070E02AE0CE010E944E0D800F911FC7
:10049000DF91CF911F910F91FF90EF90DF90CF9060
:1004A000BF90AF909F908F9008950E946C1261E072
:1004B000809181020C94EB0960E0809181020C94A0
:1004C000EB090F931F93CF93DF931F92CDB7DEB746
:1004D0008C01DC01ED91FC910084F185E02D099502
:1004E000892B69F021E041E050E0BE016F5F7F4F52
:1004F000F80184850E943D0F898190E002C08FEF52
:100500009FEF0F90DF91CF911F910F910895CF939F
:10051000DF931F92CDB7DEB7FC01218D328D232BE7
:1005200061F021E041E050E0BE016F5F7F4F8485C4
:100530000E943D0F898190E002C08FEF9FEF0F90E6
:10054000DF91CF910895FC018485883011F00C94DF
:100550007C0F80E090E00895AF92BF92CF92DF923F
:10056000FF920F931F93CF93DF938C015B01EA01FE
:10057000FC01C788D08CF4848F2D0E94D70F8C1774
:100580009D0720F48F2D0E94D70FEC019E01A5013D
:10059000B6018F2D0E94980FF8018789908D8C0FDE
:1005A0009D1F908F878BCE01DF91CF911F910F916F
:1005B000FF90DF90CF90BF90AF900895CF92DF92E1
:1005C000EF92FF920F931F93CF93DF93CDB7DEB7D8
:1005D000AF970FB6F894DEBF0FBECDBF7C016A01A6
:1005E00002EB11E01A8309831C861B8688EE93E0D8
:1005F000A0E0B0E08D879E87AF87B88B8CE091E05C
:100600009A87898788E08D8B198F088F1A8E1B8EA9
:100610001C8E1D8E1BA70AA71CA61DA61EA61FA604
:1006200080912A0390912B03A0912C03B0912D036C
:100630008EA39FA3A8A7B9A78B839C83AD83BE83FA
:1006400018861F82AE01465D5F4FCE0101960E9463
:100650007E0A81309105B1F4D701ED91FC910488B7
:10066000F589E02D1DA30CA38CA59DA5AEA5BFA566
:100670008EA39FA3A8A7B9A7A601BE016C5D7F4F5B
:10068000C7010995AF960FB6F894DEBF0FBECDBF78
:10069000DF91CF911F910F91FF90EF90DF90CF905E
:1006A0000895CF92DF92EF92FF920F931F93CF9313
:1006B000DF93CDB7DEB7AF970FB6F894DEBF0FBEAE
:1006C000CDBF7C016A0102EB11E01A8309831C860D
:1006D0001B8688EE93E0A0E0B0E08D879E87AF8711
:1006E000B88B8CE091E09A87898788E08D8B198F91
:1006F000088F1A8E1B8E1C8E1D8E1BA70AA71CA688
:100700001DA61EA61FA680912A0390912B03A091DF
:100710002C03B0912D038EA39FA3A8A7B9A78B8309
:100720009C83AD83BE8318861F82AE01465D5F4FFA
:10073000CE0101960E947E0A81309105B1F4D70165
:10074000ED91FC910684F785E02D1DA30CA38CA5EB
:100750009DA5AEA5BFA58EA39FA3A8A7B9A7A601D7
:10076000BE016C5D7F4FC7010995AF960FB6F89437
:10077000DEBF0FBECDBFDF91CF911F910F91FF90D4
:10078000EF90DF90CF9008951F920F920FB60F92C7
:1007900011242F933F934F935F936F937F938F9386
:1007A0009F93AF93BF93EF93FF9389E892E00E94EA
:1007B000CE00FF91EF91BF91AF919F918F917F916B
:1007C0006F915F914F913F912F910F900FBE0F90BE
:1007D0001F9018951F920F920FB60F9211242F930E
:1007E0008F939F93EF93FF93E0919902F0919A0278
:1007F0008081E0919F02F091A00282FD12C0908161
:100800008091A2028F5F8F732091A302821751F013
:10081000E091A202F0E0E757FD4F958F8093A2028E
:1008200001C08081FF91EF919F918F912F910F9047
:100830000FBE0F901F901895DF92EF92FF920F93CB
:100840001F93CF93DF93D82FD92EC62F7A0189011A
:1008500080912603909127030E9471010E945C02FF
:100860008D2D0E946A018D2F0E946A018C2F0E949B
:100870006A01E701E00EF11ECE15DF0529F080E0E8
:100880000E946A018993F8CF0E945702C801DF9144
:10089000CF911F910F91FF90EF90DF9008951F93DC
:1008A000CF93DF93D82F192FC62F809126039091D5
:1008B00027030E9471010E945C02812F0E946A013D
:1008C0008D2F0E946A018C2F0E946A0180E00E9495
:1008D0006A01C82F0E9457028C2FDF91CF911F9180
:1008E0000895DF92EF92FF920F931F93CF93DF93C0
:1008F000D82FD92EC62F7A01890180912603909195
:1009000027030E9471010E945C028D2D0E946A01E2
:100910008D2F0E946A018C2F0E946A01E701E00E70
:10092000F11ECE15DF0521F089910E946A01F9CFF1
:100930000E945702C801DF91CF911F910F91FF9044
:10094000EF90DF9008950F931F93CF93DF93182FAD
:10095000092FD62FC42F80912603909127030E9440
:1009600071010E945C02802F0E946A01812F0E9407
:100970006A018D2F0E946A018C2F0E946A010E94D9
:10098000570281E0DF91CF911F910F9108959B0154
:100990008295880F807E6CE0680FC9010C94A304D7
:1009A000CF93C82F60E170E00E94B60D4FEF62E078
:1009B00070E08C2FCF910C94C704CF93DF93EC01A0
:1009C0008C85883061F00E94D004EC85F0E0EE0F59
:1009D000FF1FE859FD4F1182108288E08C87DF915C
:1009E000CF9108951F93CF93DF93FB01DC015896BD
:1009F0001C921E9257972281211109C02381211137
:100A000006C02481211103C02581222321F1411533
:100A1000510509F1EA01DC011C961C91AF014E5F02
:100A20005F4F612F6295660F607E645F24E030E067
:100A30008CE090E00E9471044D2F60E170E0812F06
:100A40000E94C7044C2F61E170E0812F0E94C7040F
:100A500081E090E002C080E090E0DF91CF911F91B3
:100A600008959B018295880F807E68E0680FC90118
:100A70000C944F041F93CF93DF93182F66E270E01E
:100A80000E943105C82FD0E0DC2FCC2767E270E050
:100A9000812F0E9431059E01280F311DC901DF9170
:100AA000CF911F9108951F93CF93DF93182F60E28A
:100AB00070E00E943105C82FD0E0DC2FCC2761E226
:100AC00070E0812F0E9431059E01280F311DC90160
:100AD000DF91CF911F910895CF92DF92EF92FF9215
:100AE0001F93CF93DF93182F6B017A010E947C0F25
:100AF000EC01009799F463E070E0812F0E943105CA
:100B00008431F1F08823E1F0C1E0D0E08C3111F4C0
:100B1000C0E0D0E0D195C195D10912C0E816F90620
:100B20000CF4E7011C161D065CF420E0AE01B601D2
:100B3000812F0E943D0F60E470E0812F0E94B60D6E
:100B4000CE01DF91CF911F91FF90EF90DF90CF907A
:100B50000895CF93DF93FC01218D328D211531054E
:100B600019F48FEF9FEF11C0EC014217530708F003
:100B7000A9018C850E946C051816190694F7298D19
:100B80003A8D281B390B3A8F298FDF91CF91089529
:100B90000F931F93CF93DF931F92CDB7DEB7FC0166
:100BA000218D328D232B61F08C0141E050E0BE019C
:100BB0006F5F7F4F84850E946C05181619061CF024
:100BC0008FEF9FEF08C0F801818D928D0197928F72
:100BD000818F898190E00F90DF91CF911F910F91CC
:100BE00008950F931F93CF93DF93CDB7DEB7289768
:100BF0000FB6F894DEBF0FBECDBF8C01DC01ED91C6
:100C0000FC910680F781E02D0995F80184850E940A
:100C10007C0F892B51F148E050E0BE016F5F7F4FA0
:100C2000D8011C968C910E946C0518161906FCF4CC
:100C3000D801519684E0FE01319601900D928A957B
:100C4000E1F78D8190E0982F88272E81820F911DEA
:100C5000F801968B858B8F8190E0982F88272885C7
:100C6000820F911D928F818F02C080E090E02896C4
:100C70000FB6F894DEBF0FBECDBFDF91CF911F91AD
:100C80000F910895FC0184850C946C05CF93DF933C
:100C90001F92CDB7DEB741E050E0BE016F5F7F4FDE
:100CA000FC0184850E946C05181619061CF48981C4
:100CB00090E002C08FEF9FEF0F90DF91CF910895EA
:100CC000CF93FC01C48560E270E08C2F0E94B60DCA
:100CD00062E070E08C2F0E94310584FD10C062E05C
:100CE00070E08C2F0E94310583FFF2CF48E162E073
:100CF00070E08C2F0E94C70480E090E008C040E1C3
:100D000062E070E08C2F0E94C70481E090E0CF91F8
:100D10000895EF92FF921F93CF93DF93FC012485F8
:100D2000283011F080E01DC07B01EC0110E063E091
:100D300070E0812F0E943105811102C01C8705C01F
:100D40008831E1F31F5F183091F78C85883051F3BB
:100D5000FE86ED861A8E198EA70162E00E94C60DEE
:100D600081E0DF91CF911F91FF90EF900895FC01FA
:100D70008485883021F063E070E00C94310580E0D8
:100D800008958F929F92AF92BF92CF92DF92EF928F
:100D9000FF920F931F93CF93DF93CDB7DEB72D97BD
:100DA0000FB6F894DEBF0FBECDBF7C0100E010E0AF
:100DB00038EE832E33E0932EA12CB12C42E5C42EC5
:100DC00041E0D42E1C821B828D829E82AF82B88627
:100DD000DA82C9820D87CE0101960E94B706811181
:100DE0001EC0F7014481558161E0802F0E94C60D2D
:100DF00063E070E0802F0E943105833129F462E0C6
:100E000070E0802F0E94B60DF70184819581000F5C
:100E1000111FF801E859FD4F9183808305C00F5FD2
:100E20001F4F0830110571F62D960FB6F894DEBFEE
:100E30000FBECDBFDF91CF911F910F91FF90EF902B
:100E4000DF90CF90BF90AF909F908F900895CF93F9
:100E5000DF93FC0124852830D1F0EC010E94B70615
:100E6000843181F0882371F0883161F08C3161F434
:100E7000E881F9810084F185E02DCE01099521E01A
:100E8000892B19F420E001C021E0822F01C080E00D
:100E9000DF91CF910895CF92DF92EF92FF92CF939F
:100EA000DF93EC018C85883099F168E070E00E9456
:100EB000B60D0E94720A6B017C01CE010E94B7063A
:100EC0008823A1F00E94720ADC01CB018C199D09D4
:100ED000AE09BF09883E9340A105B10538F461E031
:100EE00070E080E090E00E94380AE7CFCE010E94D7
:100EF000B706882319F08C850E94D004EC85F0E0B9
:100F0000EE0FFF1FE859FD4F1182108288E08C8799
:100F1000DF91CF91FF90EF90DF90CF9008954F92A7
:100F20005F926F927F928F929F92AF92BF92CF9279
:100F3000DF92EF92FF921F93CF93DF93CDB7DEB78F
:100F40002D970FB6F894DEBF0FBECDBF7C0198E69B
:100F5000C92E92E0D92E10E0A12CB12C28EE422E01
:100F600023E0522E612C712C32E5832E31E0932E3A
:100F70001C821B824D825E826F8278869A82898271
:100F80001D87D6012D913D916D01F70184819581D9
:100F900028173907B1F4CE0101960E94B7068431B3
:100FA00069F0CE0101960E94B7068C3151F4CE0152
:100FB00001960E94A302892B91F003C0AA24A39456
:100FC000B12C1F5F1830A1F6AB2871F4D701ED9159
:100FD000FC910084F185E02DC701099505C0CE0183
:100FE00001960E944B07EDCF2D960FB6F894DEBF09
:100FF0000FBECDBFDF91CF911F91FF90EF90DF909B
:10100000CF90BF90AF909F908F907F906F905F90A8
:101010004F9008958F929F92AF92BF92CF92DF929E
:10102000EF92FF920F931F93CF936C015B017A01B4
:10103000FC01C485C83041F481E090E0F60193835F
:10104000828380E090E041C08A014130584010F036
:1010500000E018E08C2F0E94D70F4C0163E070E095
:101060008C2F0E943105873111F08C3121F48016CC
:10107000910680F302C000E010E09801A50160E055
:1010800070E08C2F0E94980F60E270E08C2F0E941D
:10109000B60D62E070E08C2F0E94310584FD0BC01C
:1010A00063E070E08C2F0E9431058111F2CF8C2F0C
:1010B0000E94D004C1CF40E162E070E08C2F0E941A
:1010C000C704012B09F4B8CFC701CF911F910F912D
:1010D000FF90EF90DF90CF90BF90AF909F908F9058
:1010E00008953F924F925F926F927F928F929F925C
:1010F000AF92BF92CF92DF92EF92FF920F931F9326
:10110000CF93DF93CDB7DEB72D970FB6F894DEBF40
:101110000FBECDBF6C015B014A010E948F0788E6BC
:10112000E82E82E0F82E312C00E010E098EE492EF7
:1011300093E0592E612C712C1C821B824D825E82A1
:101140006F82788682E591E09A8389833D86F701F4
:10115000219131917F01F60184819581281739070A
:1011600031F4CE0101960E94B7068731E9F033943D
:10117000F8E03F12E1CFC8012D960FB6F894DEBF1C
:101180000FBECDBFDF91CF911F910F91FF90EF90D8
:10119000DF90CF90BF90AF909F908F907F906F9097
:1011A0005F904F903F900895A401B501CE01019644
:1011B0000E940A08080F191FDACFDF92EF92FF9200
:1011C0000F931F93CF93DF93FC012485283009F000
:1011D0007DC07A01EB018C01D12C63E070E08D2D94
:1011E0000E943105811103C0F801D48607C08B7FAE
:1011F0008831D1F3D394F8E0DF12EFCFF801848582
:10120000883009F463C020910001309101012F5F03
:101210003F4F11F420E034E03093010120930001AE
:10122000409100015091010161E00E94C60D8A8148
:101230008F3F51F48B818F3F91F48C818F3F79F4F4
:101240008D818F3F61F43FC0811109C08B81811175
:1012500006C08C81811103C08D818823A1F1E11426
:10126000F10489F1F801D484AE014E5F5F4F6D2D1A
:101270006295660F607E645F24E030E08CE090E071
:101280000E9471044F2D60E170E08D2D0E94C70413
:101290004E2D61E170E08D2D0E94C70464E070E086
:1012A0008D2D0E94B60DC8010E94B706873189F0C6
:1012B00061E070E080E090E00E94380AC8010E947E
:1012C000B7068111F0CF88E0F801848780E090E0D4
:1012D00002C081E090E0DF91CF911F910F91FF90CC
:1012E000EF90DF9008953FB7F89480917D02909140
:1012F0007E02A0917F02B091800226B5A89B05C016
:101300002F3F19F00196A11DB11D3FBFBA2FA92F84
:10131000982F8827820F911DA11DB11DBC01CD0101
:1013200042E0660F771F881F991F4A95D1F70895ED
:10133000CF92DF92EF92FF920F931F93CF93DF93A1
:101340006C017A018B01C0E0D0E0CE15DF0581F0A1
:10135000D8016D918D01D601ED91FC910190F08144
:10136000E02DC6010995892B11F02196EECF7E0163
:10137000C701DF91CF911F910F91FF90EF90DF9008
:10138000CF9008956115710579F0FB01019000205F
:10139000E9F73197AF01461B570BDC01ED91FC914A
:1013A0000280F381E02D099480E090E008950F938E
:1013B0001F93CF93DF93EC010E94C2098C016AEB6B
:1013C00071E0CE010E94C209800F911FDF91CF9181
:1013D0001F910F91089590E0FC01E859FF4F24916F
:1013E000FC01EC55FF4F3491FC01E057FF4FE491B5
:1013F000EE2309F43CC0222339F1233091F038F474
:101400002130A9F0223001F584B58F7D12C027303C
:1014100091F02830A1F02430B9F4809180008F7DC4
:1014200003C0809180008F77809380000DC084B5C9
:101430008F7784BD09C08091B0008F7703C0809101
:10144000B0008F7D8093B000F0E0EE0FFF1FE458F6
:10145000FF4FA591B4919FB7F894611104C08C918E
:101460003095382302C0EC913E2B3C939FBF0895EA
:101470008F929F92AF92BF92CF92DF92EF92FF92A4
:101480006B017C010E9473094B015C01C114D10402
:10149000E104F104F1F00E947309DC01CB01881929
:1014A0009909AA09BB09883E9340A105B10570F3CB
:1014B00021E0C21AD108E108F10888EE880E83E025
:1014C000981EA11CB11CC114D104E104F10419F748
:1014D000DDCFFF90EF90DF90CF90BF90AF909F90C7
:1014E0008F9008952FB7F8946091790270917A02E5
:1014F00080917B0290917C022FBF08954F925F9262
:101500006F927F928F929F92AF92BF92CF92DF9213
:10151000EF92FF920F931F93CF93DF93CDB7DEB778
:1015200063970FB6F894DEBF0FBECDBF7C015B01A1
:101530003A01FB01DB018D918111FDCF20E030E00C
:1015400080E090E05AE041914423F9F08430910525
:101550004CF54E3269F42F3F310509F01CF5D301EB
:10156000A80FB91F12962C93019620E030E0EBCF24
:10157000529FB001539F700D1124242F440F330B41
:1015800020533109260F371FDECF2F3F310509F0D9
:101590004CF48430910534F4F301E80FF91F2283F1
:1015A00081E021C0F701428153816481758180917E
:1015B000850290918602A0918702B0918802481717
:1015C00059076A077B0709F427C10E94720A87013D
:1015D000085F1F4F6F7077277C5FC8010E948906E4
:1015E000813019F080E090E0F8C182EB91E09A83BD
:1015F0008983F70182819381A481B5818B839C8348
:10160000AD83BE8345E350E0BE016F5F7F4FC801ED
:101610000E94F204892B19F4C12CD12CF8C00E942D
:10162000720AF7017783668342E050E0B7016A5F90
:101630007F4FC8010E94AC0281E090E09A838983C9
:1016400042E050E0BE016F5F7F4FC8010E94AC02D4
:1016500080E091E09A83898342E050E0BE016F5FB1
:101660007F4FC8010E94AC021A82198242E050E00A
:10167000BE016F5F7F4FC8010E94AC0242E050E0A4
:10168000BE016F5F7F4FC8010E94AC0242E050E094
:10169000BE016F5F7F4FC8010E94AC024501F5019A
:1016A0008081882301F164015601F60181912F01A7
:1016B000882321F08E3211F06201F6CFC818D908C4
:1016C0001C141D0474F4CD8641E050E0BE01635F3C
:1016D0007F4FC8010E94AC02A601B401C8010E945C
:1016E000AC024201DCCF1D8641E050E0BE01635FE9
:1016F0007F4FC8010E94AC02C12CDD24D394DA8252
:10170000C98242E050E0BE016F5F7F4FC8010E9476
:10171000AC02DA82C98242E050E0BE016F5F7F4FC7
:10172000C8010E94AC02C8010E946006892B09F41E
:1017300073CFE3E0AE2EB12C230122E0420E511C08
:101740000E94720A3B014C01C8010E94F105181663
:101750001906A4F00E94720ADC01CB0186199709D0
:10176000A809B90989389341A105B105D0F462E30C
:1017700070E080E090E00E94380AE6CFF7014281F5
:10178000538164817581818D928DA38DB48D4817AD
:1017900059076A077B0749F4858D968DC59729F40B
:1017A00009C0CC24CA94DC2C29C09EEFC92EDD24AC
:1017B000DA9424C0F70181A192A10C970CF408C11E
:1017C0004CE050E0BE016F5F7F4FC8010E94A90549
:1017D0008B819C819827892798279A8B898BF70181
:1017E0004681578129813A8142175307C1F0C801C8
:1017F0000E9474017CEFC72EDD24DA9481E0A81AE0
:10180000B10829F0FFEFCF16DF0609F499CFC80120
:101810000E94DD04C601E1C08EEF9FEFDEC097FF9E
:10182000E6CF8F709270892B41F0C8010E9474013D
:101830006BEFC62EDD24DA94E1CF6F8078847624B6
:10184000672476246114710419F0C12CD12C25C0B1
:10185000C8010E9474015AEFC52EDD24DA94CECF60
:1018600041E050E0BE01635F7F4FC8010E94A905BF
:101870008D8581111BC08D858111F2CFC8010E9419
:10188000C805C8010E94C805C8010E94C805C80152
:101890000E94C805FFEFCF1ADF0A8D819E8198272D
:1018A00089279827C816D906D8F20AC08D859FEFD8
:1018B000980F9D878823F9F2C8010E94C805F6CFCA
:1018C000812C912C41E050E0BE016D5E7F4FC8013C
:1018D0000E94A9058B89982F907C61F4882389F058
:1018E0008B899FEF980F9B8B882341F0C8010E9442
:1018F000C805F6CFC8010E94C8051B8A8B898111D3
:10190000E1CF42E050E0BE01615F7F4FC8010E941D
:10191000A90542E050E0BE01635F7F4FC8010E940D
:10192000A905C8010E94C805C8010E94C805C801D0
:101930000E94C805C8010E94C80542E050E0BE01EF
:101940006F5E7F4FC8010E94A9058F859889811518
:10195000914049F4CD84DE84DC24CD24DC2481E074
:10196000C816D10419F0C12CD12C14C089899A89C8
:101970008115944041F0C8010E94740147EFC42EC4
:10198000DD24DA943BCF44E050E0B201C8010E946C
:10199000A90534CF89899A89982789279827C81655
:1019A000D90638F4C8010E94C805FFEFCF1ADF0A34
:1019B000F1CF2FEF821A920A6814790409F082CFCE
:1019C000C8010E94740136EFC32EDD24DA9416CFCD
:1019D0008DEFC82EDD24DA9411CF63960FB6F894FC
:1019E000DEBF0FBECDBFDF91CF911F910F91FF9052
:1019F000EF90DF90CF90BF90AF909F908F907F90AF
:101A00006F905F904F9008951F920F920FB60F92B4
:101A100011242F933F938F939F93AF93BF93809104
:101A2000790290917A02A0917B02B0917C02309170
:101A3000780223E0230F2D3720F40196A11DB11D5C
:101A400005C026E8230F0296A11DB11D2093780240
:101A50008093790290937A02A0937B02B0937C02E8
:101A600080917D0290917E02A0917F02B0918002D0
:101A70000196A11DB11D80937D0290937E02A093DB
:101A80007F02B0938002BF91AF919F918F913F9160
:101A90002F910F900FBE0F901F9018958F929F92CD
:101AA000AF92BF92EF92FF920F931F93CF93DF936A
:101AB000CDB7DEB7A1970FB6F894DEBF0FBECDBF8E
:101AC0007C01FA01CB0119A2223008F42AE08E0130
:101AD0000F5D1F4F822E912CA12CB12CBF01A501AF
:101AE00094010E944412F901CA01015011096A309F
:101AF00014F4605D01C0695CD8016C93232B242B26
:101B0000252B61F7B801C7010E94C209A1960FB643
:101B1000F894DEBF0FBECDBFDF91CF911F910F9123
:101B2000FF90EF90BF90AF909F908F90089590E0BE
:101B3000FC01EC55FF4F2491FC01E057FF4F8491CD
:101B4000882399F090E0880F991FFC01EA57FF4F16
:101B5000A591B491FC01E458FF4F859194918FB702
:101B6000F894EC91E22BEC938FBF0895CF93C82F9C
:101B7000462F61E070E00E94C70461E070E08C2FA6
:101B80000E9431058111F9CFCF9108950F931F93D2
:101B9000CF93DF93C82FD62F8A010E94D0044D2FF8
:101BA00060E070E08C2F0E94C7040115110551F40C
:101BB00000914203109143030F5F1F4F10934303A3
:101BC00000934203412F64E070E08C2F0E94C70411
:101BD000402F65E070E08C2F0E94C70461E070E048
:101BE0008C2F0E94B60D81E0DF91CF911F910F9154
:101BF0000895CF92DF92EF92FF920F931F93CF93AE
:101C0000DF93CDB7DEB7C254D1090FB6F894DEBF6B
:101C10000FBECDBFFC0182819381A481B581239643
:101C20008CAF9DAFAEAFBFAF239721E023962FAF10
:101C3000239723964CAD5DAD6EAD7FAD23974BAB37
:101C40005CAB6DAB7EAB89AF9AAFABAFBCAF8DA7D2
:101C50009EA7AFA7B8AB28AB4DA55EA56FA578A989
:101C60004FA358A769A77AA72EAB4BA95CA96DA96A
:101C70007EA949A35AA36BA37CA38B8F9C8FAD8FA6
:101C8000BE8F42EB51E05C8B4B8B3FEF3D8B3E8B2D
:101C90003F8B188E5E874D872AA7CFA0D8A4E9A4D2
:101CA000FAA4CF86D88AE98AFA8A2CA309A11AA1B4
:101CB0002BA13CA109871A872B873C875A8349832C
:101CC0008B839C83AD83BE83109134031093810278
:101CD00068EE73E080E090E00E94380A812F0E9455
:101CE000970D1FB7F89480914103811124C0EAE950
:101CF000F0E08491EEEAF0E09491E82FF0E0EE0F4E
:101D0000FF1FEA57FF4FA591B491EC91E92321F40D
:101D100061E08AE00E94EB098AE00E94970D8CB591
:101D200080618CBD8CB580648CBD8DE00E94970D68
:101D30008BE00E94970D809141038F5F8093410358
:101D40001FBF60E080E090E00E944F04482F406891
:101D500064E080E090E00E94A30410E0012F02956F
:101D6000000F007E045F42E0602F8EE190E00E9451
:101D7000A30442E0602F8FE190E00E94A3041F5F64
:101D8000183061F726E030E042E051E064E089E09D
:101D900090E00E94710424E030E0AE014D5F5F4F9F
:101DA00064E08FE090E00E94710424E030E0AE0136
:101DB000415F5F4F64E081E090E00E94710424E0A5
:101DC00030E0AE014B5E5F4F64E085E090E00E9442
:101DD000710481E08C8789859A85AB85BC85809369
:101DE0002A0390932B03A0932C03B0932D03CE5B77
:101DF000DF4F0FB6F894DEBF0FBECDBFDF91CF919E
:101E00001F910F91FF90EF90DF90CF900895CF92A8
:101E1000DF92EF92FF920F931F93CF93DF936B01AB
:101E2000770FEE08FF08F7FE1BC0EC016DE20E9481
:101E3000E7018C0144275527BA014C195D096E0949
:101E40007F092AE0CE010E944E0D800F911FDF9185
:101E5000CF911F910F91FF90EF90DF90CF90089559
:101E60002AE0B701A601DF91CF911F910F91FF905A
:101E7000EF90DF90CF900C944E0DCF92DF92EF92C7
:101E8000FF920F931F93CF93DF93D82E7B018A018C
:101E9000C22E68E270E00E943105D82F69E270E03E
:101EA0008D2D0E943105CD2FD0E0DC2FCC27C80F1F
:101EB000D11D6D2D6295660F607E685E9801A70149
:101EC000CE010E941C04C1100EC0C00FD11F4D2FA7
:101ED00068E270E08D2D0E94C7044C2F69E270E02B
:101EE0008D2D0E94C704DF91CF911F910F91FF901C
:101EF000EF90DF90CF900895FF920F931F93CF93B1
:101F0000DF93F82E00E010E08F2D0E943A05EC01DF
:101F1000892B21F08F2D0E943A058C01C017D10723
:101F200099F7CE01DF91CF911F910F91FF90089506
:101F3000AF92BF92CF92DF92FF920F931F93CF93F6
:101F4000DF93F82E8B015A01690164E270E00E9470
:101F50003105C82F65E270E08F2D0E943105D0E079
:101F6000DC2FCC27080F111DC00FD11F6F2D6295DC
:101F7000660F607E6C5E9601A501CE010E94710421
:101F8000CC0DDD1D4D2F64E270E08F2D0E94C70443
:101F90004C2F65E270E08F2DDF91CF911F910F9153
:101FA000FF90DF90CF90BF90AF900C94C704FF924A
:101FB0000F931F93CF93DF93F82E00E010E08F2D47
:101FC0000E945305EC01892B21F08F2D0E945305AF
:101FD0008C01C017D10799F7CE01DF91CF911F91E6
:101FE0000F91FF900895CF93DF93CDB7DEB76A9737
:101FF0000FB6F894DEBF0FBECDBF789484B5826073
:1020000084BD84B5816084BD85B5826085BD85B59C
:10201000816085BD80916E00816080936E0010921A
:102020008100809181008260809381008091810095
:102030008160809381008091800081608093800026
:102040008091B10084608093B1008091B000816084
:102050008093B00080917A00846080937A008091B0
:102060007A00826080937A0080917A008160809308
:102070007A0080917A00806880937A001092C10083
:10208000E0919902F0919A0282E08083E0919502BA
:10209000F09196021082E0919702F09198028FECF5
:1020A00080831092A102E0919D02F0919E0286E051
:1020B0008083E0919B02F0919C028081806180830B
:1020C000E0919B02F0919C02808188608083E09186
:1020D0009B02F0919C02808180688083E0919B024A
:1020E000F0919C0280818F7D808302EB11E01A8346
:1020F000098380913D0390913E03A0913F03B091ED
:1021000040038B839C83AD83BE83CE0101960E94E6
:10211000F90D85E393E00E94C1066DEB71E089E85B
:1021200092E00E94C2091A8309831B821C821D82CD
:102130001E8224E030E0AE014D5F5F4F60E08FE033
:1021400090E00E941C0469E872E0CE0101960E94B2
:102150000B026AEB71E089E892E00E94C20998EEF6
:10216000892E93E0992EA12CB12C22E5C22E21E0DC
:10217000D22E85E393E00E948F0788E6E82E82E066
:10218000F82E10E01C821B828D829E82AF82B88660
:10219000DA82C9821D87F701219131917F018091F7
:1021A000390390913A032817390759F5CE01019662
:1021B0000E94B706873131F0CE0101960E94B70622
:1021C0008C31F9F4CE0101960E94A302892BC9F04B
:1021D0008B819C81998B888B8D819E81AF81B88505
:1021E0008A8B9B8BAC8BBD8B89859A85AB85BC8597
:1021F0008E8B9F8BA88FB98FDF86CE868D858A8F39
:102200000DC01F5F183009F0BDCF198A188A8A8A5D
:102210009B8AAC8ABD8ADF86CE861A8F8A8D8830EB
:1022200009F49FC06BEC71E089E892E00E94D70945
:1022300011E0CE010E960E942707882309F481C081
:10224000CE010E960E94A302892B99F3CE010E9621
:102250000E944606082F682F89E892E00E94F0004D
:102260000A3009F069C0112319F366ED71E0CE015F
:102270000E960E94D70966EE71E0CE010E960E947E
:10228000D7096EEF71E0CE010E960E94D70960E18A
:1022900072E0CE010E960E94D7096AEB71E0CE0182
:1022A0000E960E94C2096BE172E0CE010E960E946A
:1022B000D7096BE272E0CE010E960E94D70900E0CA
:1022C00010E0802F806480937C0080917A0080648D
:1022D00080937A0080917A0086FDFCCFE0907800B0
:1022E00080917900F12CF82A62E372E0CE010E961B
:1022F0000E94C209B801CE010E960E94070F60E449
:1023000072E0CE010E960E94C209B701CE010E9670
:102310000E94070F65E472E0CE010E960E94D70975
:102320000F5F1F4F0630110561F66CE472E0CE01BD
:102330000E960E94D70905C00D3009F47ACF10E03F
:1023400078CF61E070E080E090E00E94380ACE0132
:102350000E960E944B0764E572E089E892E00E94C5
:10236000D7090E945F0105CFE3E8F2E082EB91E03C
:10237000918380831282138214821582E4E4F3E055
:10238000918380831282138214821582E9E8F2E03D
:102390001382128248EE53E060E070E0448355837C
:1023A0006683778326E831E03183208325EC30E0B3
:1023B0003587248724EC30E03787268720EC30E00F
:1023C000318B208B21EC30E0338B228B22EC30E000
:1023D000358B248B26EC30E0378B268B118E128EBA
:1023E000138E148EE6E2F3E020E5208321E02183C2
:1023F000EAE4F3E0918380831282138214821582CF
:10240000E0E5F3E0918380831282138214821582C7
:10241000E6E5F3E0918380831282138214821582B1
:10242000ECE5F3E09183808312821382148215829B
:10243000E8E2F3E091838083128213821482158292
:10244000138612863AE03487E2E6F3E091838083D4
:102450001282138214821582EBE3F3E0918380836E
:1024600080EC828388EA8383248381EB8583E5E3A0
:10247000F3E01382128288E991E09183808380E502
:1024800090E0958384830895A1E21A2EAA1BBB1BBA
:10249000FD010DC0AA1FBB1FEE1FFF1FA217B30730
:1024A000E407F50720F0A21BB30BE40BF50B661F46
:1024B000771F881F991F1A9469F76095709580950A
:1024C00090959B01AC01BD01CF010895EE0FFF1F58
:1024D0000590F491E02D099481E090E0F8940C943B
:0624E0007112F894FFCF19
:1024E600000455ADBEEFFEED000000008601AC0213
:1024F600080274019C01C80587028906BB01DD0438
:10250600F204DE026006F105A905B401A401A001EA
:1025160000000000550255020802550255025502F8
:102526005502550255025502550255025502000044
:102536000000E7010A080802E601A3024606610256
:10254600DD08510342064B072707DE01D301FD01D3
:1025560000000000550298090802070255025502BC
:10256600550200000000F000980987003D01B80000
:102576009600AA0000000000BD01710808020702CB
:10258600C106000000005502980908020702000073
:1025960000000B020000000055020D0A0073657270
:1025A60076657220697320617420006E65772063FA
:1025B6006C69656E7400485454502F312E312032A8
:1025C6003030204F4B00436F6E74656E742D547916
:1025D60070653A20746578742F68746D6C00436F6B
:1025E6006E6E656374696F6E3A20636C6F73650017
:1025F600526566726573683A2035003C21444F4344
:10260600545950452048544D4C3E003C68746D6CFE
:102616003E00616E616C6F6720696E707574200094
:1026260020697320003C6272202F3E003C2F6874A4
:102636006D6C3E00636C69656E7420646973636FCC
:082646006E6E656374656400AB
:00000001FF
